{
  "contractName": "LiquidityPool",
  "abi": [
    {
      "constant": true,
      "inputs": [],
      "name": "getConstantK",
      "outputs": [
        {
          "internalType": "uint256",
          "name": "",
          "type": "uint256"
        }
      ],
      "payable": false,
      "stateMutability": "view",
      "type": "function"
    }
  ],
  "bytecode": "0x6080604052600080556000600155348015601857600080fd5b50608c806100276000396000f3fe6080604052348015600f57600080fd5b506004361060285760003560e01c80635308c23914602d575b600080fd5b60336049565b6040518082815260200191505060405180910390f35b60006001546000540290509056fea265627a7a7231582030e97108bcb94147331c59a2b956ce600aaf554e546b29fd7375346555e5db1964736f6c63430005100032",
  "source": "// SPDX-License-Identifier: MIT\r\npragma solidity >=0.4.22 <0.9.0;\r\n\r\ncontract LiquidityPool {\r\n    // everytime there is changes, I need to deploy once\r\n    \r\n    //address public owner = msg.sender;\r\n    \r\n    // set the value of tokens x and y\r\n    uint x = 0;\r\n    uint y = 0;\r\n\r\n    // get constant k\r\n    function getConstantK () public view returns (uint) {\r\n        return x * y;\r\n    }\r\n\r\n    \r\n\r\n\r\n    \r\n\r\n}",
  "sourcePath": "C:\\Users\\USER\\Documents\\Code Practice\\Portfolio\\Ethereum\\amm_system\\contracts\\LiquidityPool.sol",
  "compiler": {
    "name": "solc",
    "version": "0.5.16+commit.9c3226ce.Emscripten.clang"
  },
  "schemaVersion": "3.4.6",
  "updatedAt": "2022-04-11T14:18:26.107Z",
  "devdoc": {
    "methods": {}
  },
  "userdoc": {
    "methods": {}
  }
}