{
  "contractName": "Transactions",
  "abi": [
    {
      "constant": false,
      "inputs": [
        {
          "internalType": "address payable",
          "name": "receiver",
          "type": "address"
        },
        {
          "internalType": "uint256",
          "name": "amount",
          "type": "uint256"
        }
      ],
      "name": "calculationXYK",
      "outputs": [],
      "payable": false,
      "stateMutability": "nonpayable",
      "type": "function"
    },
    {
      "constant": false,
      "inputs": [],
      "name": "payTransctions",
      "outputs": [],
      "payable": false,
      "stateMutability": "nonpayable",
      "type": "function"
    }
  ],
  "bytecode": "0x608060405234801561001057600080fd5b5060c58061001f6000396000f3fe6080604052348015600f57600080fd5b506004361060325760003560e01c80632b2df86d146037578063c163de2a146082575b600080fd5b608060048036036040811015604b57600080fd5b81019080803573ffffffffffffffffffffffffffffffffffffffff16906020019092919080359060200190929190505050608a565b005b6088608e565b005b5050565b56fea265627a7a723158202fc6aaddcdc02c69b76bf51883e698d339c23969215ddcd4bc0e9d3244a8e31664736f6c63430005100032",
  "source": "// SPDX-License-Identifier: MIT\r\npragma solidity >=0.4.22 <0.9.0;\r\n\r\ncontract Transactions {\r\n\r\n    // event Transfer (address sender, address receiver, uint amount, string message, uint256 timestamp, string keyword);\r\n\r\n    // function publishTransaction(address payable receiver, uint amount, string memory message, string memory keyword) public {\r\n    //     emit Transfer(msg.sender, receiver, amount, message, block.timestamp, keyword); \r\n    // }\r\n\r\n    function calculationXYK(address payable receiver, uint amount) public {\r\n\r\n    }\r\n\r\n    function payTransctions() public {\r\n\r\n    }\r\n\r\n    \r\n\r\n}",
  "sourcePath": "C:\\Users\\USER\\Documents\\Code Practice\\Portfolio\\Ethereum\\amm_system\\contracts\\Transactions.sol",
  "compiler": {
    "name": "solc",
    "version": "0.5.16+commit.9c3226ce.Emscripten.clang"
  },
  "schemaVersion": "3.4.6",
  "updatedAt": "2022-04-11T14:18:26.123Z",
  "devdoc": {
    "methods": {}
  },
  "userdoc": {
    "methods": {}
  }
}